S014000042697454776964646C696E672E737265634B
S11300000C9434000C943E000C943E000C943E007E
S11300100C943E000C943E000C943E000C943E0064
S11300200C943E000C943E000C943E000C943E0054
S11300300C943E000C943E000C943E000C943E0044
S11300400C943E000C943E000C943E000C943E0034
S11300500C943E000C943E000C943E000C943E0024
S11300600C943E000C943E0011241FBECFEFD4E04C
S1130070DEBFCDBF0E9440000C946C000C940000C5
S11300808FEF84B980E090E041E050E00FC09A0126
S1130090082E02C0220F331F0A94E2F725B9E1E0CB
S11300A0F3E53197F1F700C0000001968730910520
S11300B070F30097D9F39A01082E02C0220F331F60
S11300C00A94E2F725B9E1E0F3E53197F1F700C0CE
S10F00D00000019781F7EACFF894FFCFFD
S9030000FC
